{
  "contractName": "Lottery",
  "abi": [
    {
      "inputs": [],
      "stateMutability": "nonpayable",
      "type": "constructor"
    },
    {
      "inputs": [
        {
          "internalType": "uint256",
          "name": "",
          "type": "uint256"
        }
      ],
      "name": "players",
      "outputs": [
        {
          "internalType": "address payable",
          "name": "",
          "type": "address"
        }
      ],
      "stateMutability": "view",
      "type": "function"
    },
    {
      "inputs": [],
      "name": "winner",
      "outputs": [
        {
          "internalType": "address payable",
          "name": "",
          "type": "address"
        }
      ],
      "stateMutability": "view",
      "type": "function"
    },
    {
      "stateMutability": "payable",
      "type": "receive"
    },
    {
      "inputs": [],
      "name": "getBalance",
      "outputs": [
        {
          "internalType": "uint256",
          "name": "",
          "type": "uint256"
        }
      ],
      "stateMutability": "view",
      "type": "function"
    },
    {
      "inputs": [],
      "name": "pickWinner",
      "outputs": [],
      "stateMutability": "nonpayable",
      "type": "function"
    },
    {
      "inputs": [],
      "name": "allPlayers",
      "outputs": [
        {
          "internalType": "address payable[]",
          "name": "",
          "type": "address[]"
        }
      ],
      "stateMutability": "view",
      "type": "function"
    }
  ],
  "bytecode": "0x608060405234801561001057600080fd5b5033600160006101000a81548173ffffffffffffffffffffffffffffffffffffffff021916908373ffffffffffffffffffffffffffffffffffffffff160217905550610b08806100616000396000f3fe60806040526004361061004e5760003560e01c806312065fe0146101065780635d495aea14610131578063b0ec809414610148578063dfbf53ae14610173578063f71d96cb1461019e57610101565b3661010157662386f26fc10000341461009c576040517f08c379a0000000000000000000000000000000000000000000000000000000008152600401610093906106f0565b60405180910390fd5b6000339080600181540180825580915050600190039060005260206000200160009091909190916101000a81548173ffffffffffffffffffffffffffffffffffffffff021916908373ffffffffffffffffffffffffffffffffffffffff160217905550005b600080fd5b34801561011257600080fd5b5061011b6101db565b6040516101289190610729565b60405180910390f35b34801561013d57600080fd5b50610146610273565b005b34801561015457600080fd5b5061015d6104bf565b60405161016a9190610834565b60405180910390f35b34801561017f57600080fd5b5061018861054d565b6040516101959190610865565b60405180910390f35b3480156101aa57600080fd5b506101c560048036038101906101c091906108b1565b610573565b6040516101d29190610865565b60405180910390f35b60003373ffffffffffffffffffffffffffffffffffffffff16600160009054906101000a900473ffffffffffffffffffffffffffffffffffffffff1673ffffffffffffffffffffffffffffffffffffffff161461026d576040517f08c379a00000000000000000000000000000000000000000000000000000000081526004016102649061092a565b60405180910390fd5b47905090565b600160009054906101000a900473ffffffffffffffffffffffffffffffffffffffff1673ffffffffffffffffffffffffffffffffffffffff163373ffffffffffffffffffffffffffffffffffffffff1614610303576040517f08c379a00000000000000000000000000000000000000000000000000000000081526004016102fa9061092a565b60405180910390fd5b6003600080549050101561034c576040517f08c379a000000000000000000000000000000000000000000000000000000000815260040161034390610996565b60405180910390fd5b60006103566105b2565b9050600080805490508261036a91906109e5565b9050600081815481106103805761037f610a16565b5b9060005260206000200160009054906101000a900473ffffffffffffffffffffffffffffffffffffffff16600260006101000a81548173ffffffffffffffffffffffffffffffffffffffff021916908373ffffffffffffffffffffffffffffffffffffffff160217905550600260009054906101000a900473ffffffffffffffffffffffffffffffffffffffff1673ffffffffffffffffffffffffffffffffffffffff166108fc61042f6101db565b9081150290604051600060405180830381858888f1935050505015801561045a573d6000803e3d6000fd5b50600067ffffffffffffffff81111561047657610475610a45565b5b6040519080825280602002602001820160405280156104a45781602001602082028036833780820191505090505b50600090805190602001906104ba9291906105ec565b505050565b6060600080548060200260200160405190810160405280929190818152602001828054801561054357602002820191906000526020600020905b8160009054906101000a900473ffffffffffffffffffffffffffffffffffffffff1673ffffffffffffffffffffffffffffffffffffffff16815260200190600101908083116104f9575b5050505050905090565b600260009054906101000a900473ffffffffffffffffffffffffffffffffffffffff1681565b6000818154811061058357600080fd5b906000526020600020016000915054906101000a900473ffffffffffffffffffffffffffffffffffffffff1681565b600044426000805490506040516020016105ce93929190610a95565b6040516020818303038152906040528051906020012060001c905090565b828054828255906000526020600020908101928215610665579160200282015b828111156106645782518260006101000a81548173ffffffffffffffffffffffffffffffffffffffff021916908373ffffffffffffffffffffffffffffffffffffffff1602179055509160200191906001019061060c565b5b5090506106729190610676565b5090565b5b8082111561068f576000816000905550600101610677565b5090565b600082825260208201905092915050565b7f506c65617365207061792031204574686572206f6e6c79000000000000000000600082015250565b60006106da601783610693565b91506106e5826106a4565b602082019050919050565b60006020820190508181036000830152610709816106cd565b9050919050565b6000819050919050565b61072381610710565b82525050565b600060208201905061073e600083018461071a565b92915050565b600081519050919050565b600082825260208201905092915050565b6000819050602082019050919050565b600073ffffffffffffffffffffffffffffffffffffffff82169050919050565b600061079b82610770565b9050919050565b6107ab81610790565b82525050565b60006107bd83836107a2565b60208301905092915050565b6000602082019050919050565b60006107e182610744565b6107eb818561074f565b93506107f683610760565b8060005b8381101561082757815161080e88826107b1565b9750610819836107c9565b9250506001810190506107fa565b5085935050505092915050565b6000602082019050818103600083015261084e81846107d6565b905092915050565b61085f81610790565b82525050565b600060208201905061087a6000830184610856565b92915050565b600080fd5b61088e81610710565b811461089957600080fd5b50565b6000813590506108ab81610885565b92915050565b6000602082840312156108c7576108c6610880565b5b60006108d58482850161089c565b91505092915050565b7f596f7520617265206e6f7420616c6c6f77656400000000000000000000000000600082015250565b6000610914601383610693565b915061091f826108de565b602082019050919050565b6000602082019050818103600083015261094381610907565b9050919050565b7f506c617965727320617265206c657373207468616e2033000000000000000000600082015250565b6000610980601783610693565b915061098b8261094a565b602082019050919050565b600060208201905081810360008301526109af81610973565b9050919050565b7f4e487b7100000000000000000000000000000000000000000000000000000000600052601260045260246000fd5b60006109f082610710565b91506109fb83610710565b925082610a0b57610a0a6109b6565b5b828206905092915050565b7f4e487b7100000000000000000000000000000000000000000000000000000000600052603260045260246000fd5b7f4e487b7100000000000000000000000000000000000000000000000000000000600052604160045260246000fd5b6000819050919050565b610a8f610a8a82610710565b610a74565b82525050565b6000610aa18286610a7e565b602082019150610ab18285610a7e565b602082019150610ac18284610a7e565b60208201915081905094935050505056fea26469706673582212207137d257e38df7f6f9ef13b50b19bfffcad49d2e1d082ea52dba35e362e1bc9c64736f6c634300080b0033",
  "immutableReferences": {},
  "source": "// SPDX-License-Identifier: GPL-3.0\r\n\r\npragma solidity >=0.5.0 <0.9.0;\r\n\r\ncontract Lottery{\r\n    address payable[] public players; //array\r\n    address manager;\r\n    address payable public winner;\r\n\r\n    constructor(){\r\n        manager = msg.sender;\r\n    }\r\n\r\n    receive() external payable{\r\n        require(msg.value==0.01 ether,\"Please pay 1 Ether only\");\r\n        players.push(payable(msg.sender));\r\n    }\r\n\r\n    function getBalance() public view returns(uint){\r\n        require(manager == msg.sender, \"You are not allowed\");\r\n        return address(this).balance;\r\n    }\r\n\r\n    function random() internal view returns(uint){\r\n         return uint(keccak256(abi.encodePacked(block.difficulty,block.timestamp, players.length)));\r\n    }\r\n\r\n    function pickWinner() public{\r\n        require(msg.sender == manager , \"You are not allowed\");\r\n        require(players.length >= 3 , \"Players are less than 3\");\r\n\r\n        uint r = random();\r\n        uint index = r%players.length;\r\n\r\n        winner = players[index];\r\n        winner.transfer(getBalance());\r\n        players = new address payable[](0);\r\n    }\r\n\r\n    function allPlayers() public view returns(address payable[] memory )\r\n    {\r\n        return players;\r\n    }\r\n}",
  "sourcePath": "C:\\Dewank-work\\Code UwU\\PROJECTS\\Lottery Dapp\\contracts\\lottery.sol",
  "compiler": {
    "name": "solc",
    "version": "0.8.11+commit.d7f03943.Emscripten.clang"
  },
  "schemaVersion": "3.4.11",
  "updatedAt": "2023-02-09T17:28:31.326Z",
  "devdoc": {
    "kind": "dev",
    "methods": {},
    "version": 1
  },
  "userdoc": {
    "kind": "user",
    "methods": {},
    "version": 1
  }
}